:10000000BAC1DEC1DDC1DCC1DBC1DAC1D9C1D8C131
:10001000D7C1D6C1D5C1D4C1D3C122CBEACAD0C1C0
:10002000CFC1CEC1CDC17DC7A1C764C767C76BC7EC
:1000300071C7B3C78FC897C8A3C8ADC894C88AC8CA
:10004000B8C885C8DAC8DCC878CA5BCA5CCA5DCAE9
:100050005ECA5FCA60CA61CA62CA63CA64CA65CA44
:1000600066CA67CA68CA6BCA7C1211127C7F49498A
:1000700049337F494949367F01010103702927210E
:100080007F7F4949494177087F0877414949493687
:100090007F1008047F7C2112097C7F0814224120F4
:1000A000413F017F7F020C027F7F0808087F3E41AD
:1000B00041413E7F0101017F7F090909063E41411F
:1000C000412201017F010147281008071C227F22DD
:1000D0001C63140814637F404040FF070808087F32
:1000E0007F407F407F7F407F40FF017F4848307FD7
:1000F0004830007F7F48483000004149493E7F0832
:100100003E413E462919097F20545454783C4A4ABE
:1001100049317C545428007C0404040C702A2622A3
:100120007E38545454186C107C106C444454542839
:100130007C2010087C78422412787C10284400200F
:10014000443C047C7C0810087C7C1010107C3844F3
:100150004444387C0404047CFC242424183844449B
:10016000440004047C04041CA0A0A07C3048FE4889
:100170003044281028447C404040FC0C1010107C77
:100180007C407C407C7C407C40FC047C5050207C4B
:100190005020007C7C5050200000445454387C1087
:1001A000384438004834147C000000000000002F60
:1001B00000000007000700147F147F14242A7F2A00
:1001C00012626408132336495522500005030000CB
:1001D000001C2241000041221C0014083E081408A3
:1001E000083E08080000A060000808080808006031
:1001F00060000020100804023E5149453E00427F45
:10020000400042615149462141454B311814127F4B
:100210001027454545393C4A4949300171090503D4
:100220003649494936064949291E0036360000003C
:10023000563600000814224100141414141400410E
:100240002214080201510906324959513E7C12110B
:10025000127C7F494949363E414141227F4141223A
:100260001C7F494949417F090909013E4149497AB1
:100270007F0808087F00417F41002040413F017F07
:10028000081422417F404040407F020C027F7F04DF
:1002900008107F3E4141413E7F090909063E415118
:1002A000215E7F09192946464949493101017F01EB
:1002B000013F4040403F1F2040201F3F4038403F0B
:1002C0006314081463070870080761514945430027
:1002D0007F414100552A552A550041417F000402C3
:1002E00001020440404040400001020400205454F8
:1002F00054787F484444383844444400384444489F
:100300007F3854545418087E09010218A4A4A47C10
:100310007F0804047800447D40004080847D007F95
:100320001028440000417F40007C041804787C08B9
:100330000404783844444438FC2424241818242421
:1003400018FC7C080404084854545420043F4440DA
:10035000203C4040207C1C2040201C3C4030403C45
:1003600044281028441CA0A0A07C4464544C44148D
:1003700014141414680E11241FBECFE5D2E0DEBFA2
:10038000CDBF10E0A0E6B0E0EAEDFDE102C00590CF
:100390000D92AA38B107D9F721E0AAE8B0E001C070
:1003A0001D92AA33B207E1F711E0CBEBD1E003C015
:1003B0002197FE01DDDCCA3BD107D1F787DC0BCDED
:1003C0001FCE0895CB01E199FECFEFCCCB01E1998F
:1003D000FECF642FF2CCCF92DF92EF92FF920F9379
:1003E0001F93CF93DF936C017B01E20EF31EEB01B1
:1003F0008A01061B170BCE15DF0539F0B8016C0F0B
:100400007D1FC601DFDF8993F6CFDF91CF911F916A
:100410000F91FF90EF90DF90CF900895CF92DF92F1
:10042000EF92FF920F931F93CF93DF936C01EB0139
:100430007B01E20EF31E8A01CE15DF0539F04991EA
:10044000B801C601C3DF0F5F1F4FF6CFDF91CF9119
:100450001F910F91FF90EF90DF90CF900895FC01D6
:10046000118210820895FC01718360830895FC015C
:1004700080819181892B29F08081918101979183DD
:1004800080830895FC012081318181E0232B09F0D4
:1004900080E0089520E2E0E6F0E0DC0101900D92BA
:1004A0002A95E1F7FC01B09624E1DF011D922A951F
:1004B000E9F7089585B7806485BF1BBA1ABA18BAE0
:1004C00017BA0895CF92DF92EF92FF92A62F20E005
:1004D00030E04FEF5FEFBA01F9013896EE0FFF1FE2
:1004E000EE0FFF1FE80FF91FC080D180E280F3807C
:1004F0004C215D216E217F212F5F3F4F253031053B
:1005000059F781E090E002C0880F991FAA95E2F7A1
:10051000A0E0B0E0482359236A237B2381E0452BE8
:10052000462B472B09F480E0FF90EF90DF90CF90AF
:100530000895662319F0613059F008952BB381E0D6
:1005400090E001C0880F4A95EAF7822B8BBB089593
:1005500028B381E090E001C0880F4A95EAF7822B2A
:1005600088BB0895662319F0613061F008952BB3BC
:1005700081E090E001C0880F4A95EAF780958223D8
:100580008BBB089528B381E090E001C0880F4A95A5
:10059000EAF78095822388BB0895662319F06130BD
:1005A00059F008952AB381E090E001C0880F4A9580
:1005B000EAF7822B8ABB089527B381E090E001C05F
:1005C000880F4A95EAF7822B87BB08950F931F93F4
:1005D000CF93DF93603198F48C01C62FD0E0CC0F1D
:1005E000DD1FC00FD11F49816881C801D6DF498155
:1005F0006881C801DF91CF911F910F91B3CFDF9137
:10060000CF911F910F910895662319F0613061F029
:1006100008952AB381E090E001C0880F4A95EAF777
:10062000809582238ABB089527B381E090E001C0C2
:10063000880F4A95EAF78095822387BB08950F9328
:100640001F93CF93DF93603198F48C01C62FD0E0D5
:10065000CC0FDD1FC00FD11F49816881C801D4DFD5
:1006600049816881C801DF91CF911F910F917ACFA5
:10067000DF91CF911F910F9108950F931F93CF9307
:10068000DF936031B0F48C0185B78F7B85BFC62FB7
:10069000D0E0CC0FDD1FC00FD11F49816881C80198
:1006A000B3DF49816881C801DF91CF911F910F911C
:1006B00040CFDF91CF911F910F910895662321F0D4
:1006C000613061F427B301C02AB381E090E0042EC9
:1006D00001C0880F0A94EAF7822301C080E090E00D
:1006E00002C0959587954A95E2F708950F931F9359
:1006F000CF93DF936031A8F48C01C62FD0E0CC0FEC
:10070000DD1FC00FD11F49816881C801D7DF019764
:1007100041F449816881C801DF91CF911F910F9108
:1007200008CFDF91CF911F910F9108950F931F93E1
:10073000CF93DF936031A8F48C01C62FD0E0CC0FAB
:10074000DD1FC00FD11F49816881C801B7DF019744
:1007500041F449816881C801DF91CF911F910F91C8
:1007600001CFDF91CF911F910F910895662321F062
:10077000613059F426B301C029B381E090E001C093
:10078000880F4A95EAF7822301C080E091E0811149
:1007900001C090E0892F08950F931F93CF93DF93AB
:1007A0006031A8F48C01C62FD0E0CC0FDD1FC00F44
:1007B000D11F49816881C80181DF892B41F44981BA
:1007C0006881C801DF91CF911F910F91CFCF80E059
:1007D000DF91CF911F910F9108957F928F929F92F9
:1007E000AF92BF92CF92DF92EF92FF920F931F933F
:1007F000CF93DF937C01EC0100E010E0812C912C81
:100800005401CC24C394D12C49816881C70156DF9F
:10081000892B31F449816881C701A8DF81111EC08D
:100820000F5F1F4F22960031110571F780918A00EA
:10083000E82FF0E03896EE0FFF1FEE0FFF1FEE0DD2
:10084000FF1D80829182A282B3828F5F853018F46F
:1008500080938A0011C010928A000EC0C601002E3B
:1008600002C0880F991F0A94E2F7A0E0B0E0882A3E
:10087000992AAA2ABB2AD4CFDF91CF911F910F9139
:10088000FF90EF90DF90CF90BF90AF909F908F90B0
:100890007F9008950F93FC017183608342832383CB
:1008A0000483158216820F9108951F93CF93DF93CF
:1008B000EC012A81888199816B81222311F06CDF00
:1008C00001C000DE182F2A81888199816C81222342
:1008D00011F062DF01C0F6DD90918B00112329F049
:1008E00091110EC0882349F004C0992349F0811169
:1008F00004C08D818F5F8D8303C08E818F5F8E8357
:1009000010938B00DF91CF911F910895FC01858199
:10091000611115820895FC01868161111682089586
:10092000FC0165830895FC01668308950895262FD0
:10093000453030F580EE860F8B3570F4862F660FCC
:10094000990B809765E070E0EED9840F911DFC0152
:10095000E855FE4F849101C080E090E4920F9034FE
:1009600080F4822F220F990B805C9F4F65E070E02E
:10097000DAD9840F911DFC01E859FF4F8491089545
:1009800080E008952BE0FC0111922A95E9F7FC0123
:10099000148613860895FC018385948508950F932A
:1009A0001F93CF93DF93EB012097B1F04B3038F4D6
:1009B000BC01CE01DF91CF911F910F91EFC98B0147
:1009C000BC01C42FD0E0AE0141505109C801D6D9B5
:1009D000C00FD11F21971882DF91CF911F910F91E6
:1009E00008958BE00895FC0174876387089561156D
:1009F000710599F0FB0101900020E9F73197E61BA2
:100A0000F70B3B9708F4CAC92AE0FB01DC0101900F
:100A10000D922A95E1F7FC011286089581958EB911
:100A200091E283E2769907C000009DB9B29BFECFA8
:100A300000008DB9F7CF8FB1089508950895C0983B
:100A40000000BA98B8981DB808956FB988E0E6DF3D
:100A5000B8981FB881E0E2DFB89A817008950F93CB
:100A60001F93CF938B01B8981FB888E0D7DFC82FAA
:100A7000B89A81E0012B09F480E081958FB981E07B
:100A8000CDDF8C2FCF911F910F91089580E00895B5
:100A90001DB8BA9AB89AC09AC29AC098C2981FB89C
:100AA00080E28DB9C09A08950F931F93CF938C0164
:100AB000C62FEEDF6C2F660FC801CF911F910F91EB
:100AC000C4CF0F931F93CF938C01C62FE1DF6C2F00
:100AD000660F6160C801CF911F910F91B6CF842F2F
:100AE0006FB99FEF940F983008F498CF80E0089585
:100AF000CF92DF92EF92FF920F931F93CF93DF93EA
:100B0000EC01798368835B834A833D832C831E8257
:100B10001F82188619861A861C861B861D86FC0174
:100B20003F968BE0DF011D928A95E9F77E01BAE1DD
:100B3000EB0EF11CC70145DC8E01055E1F4F6E01F7
:100B40008FE4C80ED11CC8011DDF035F1F4F0C15B9
:100B50001D05C9F7C80183DCCE018F5A9F4F7FDC8A
:100B6000CE018D5A9F4F7BDCCE018B5A9F4F77DC95
:100B7000CE01895A9F4F73DC60E070E0C70122DC30
:100B8000898761E070E0C7011DDC8D87882311F043
:100B900086E401C08AE08E8710E0612F8881998108
:100BA0006CDD1F5F1131C9F7DF91CF911F910F915C
:100BB000FF90EF90DF90CF9008956F3F29F06A3754
:100BC00029F081E0860F089580E2089580EC089571
:100BD000603229F0603C29F08FEF860F08958FEF87
:100BE00008958AE70895CF93DF93EC016AE070E0FF
:100BF000895A9F4F38DC68E572E0CE018F5A9F4FCB
:100C000032DC61E070E08C819D8112D662E08C81E3
:100C10009D815ED540E06FEE8C819D813FD58C81BA
:100C20009D81D8D561E08C819D81DF91CF918DC56B
:100C30000F931F93CF93DF93EC018C819D81CAD5D5
:100C40008E01015F1F4F4E8550E02AE030E0B80171
:100C5000CE014A96C0DB198EB8018C819D8170D778
:100C600082E090E0DF91CF911F910F9108950F9353
:100C70001F93CF93DF93EC018C01015F1F4F4E85D3
:100C800050E0465F5F4F2AE030E0B8014A96A3DBB0
:100C9000198E41E060E08C819D815FD5B8018C8127
:100CA0009D814ED74AE050E060E270E0C8016FD805
:100CB000198EB8018C819D8143D783E090E0DF914C
:100CC000CF911F910F910895FC0183859485823007
:100CD000910599F08730910519F00197E1F403C06F
:100CE00084E090E008958585882311F0815001C04B
:100CF00081E08587811108C009C0858591E0811157
:100D000090E09587811102C086E401C08AE0868761
:100D100082E090E0089583E090E00895EF92FF92E2
:100D20000F931F93CF93DF93EC018C819D8152D55C
:100D30008E01015F1F4F7E018AE1E80EF11C4E8596
:100D400050E04C5E5F4F2AE030E0B801C70143DB62
:100D5000198EB8018C819D8197D74E8550E0425EF7
:100D60005F4F2AE030E0B801C70135DB198EB801CA
:100D70008C819D81E5D685E090E0DF91CF911F9138
:100D80000F91FF90EF900895CF93DF93EC0141E036
:100D900069E08C819D81E1D469856F5C8C819D8146
:100DA000D3D586E090E0DF91CF910895FC01838553
:100DB00094858230910561F08730910599F0019713
:100DC000B9F48185882311F0815008C083E006C002
:100DD0008185833010F48F5F01C080E0818785E0DA
:100DE00090E0089510861782168287E090E00895BB
:100DF00086E090E008950F931F93CF93DF93EC016B
:100E00008C819D81E7D48E01015F1F4F4E8550E09C
:100E1000485D5F4F2AE030E0B801CE014A96DBDA48
:100E2000198EB8018C819D818BD668856F5C8C8111
:100E30009D818AD541E060E08C819D818ED488853A
:100E400090E06DE070E06FD74B964BE0B8018C0FEF
:100E50009D1FA5DDB8018C819D8172D688E090E050
:100E6000DF91CF911F910F910895CF93DF93EC0104
:100E70009F818E81981781F08C819D8178D441E08B
:100E80006F818C819D8169D48F81FE01E80FF11DF6
:100E900067858C819D8158D541E06E818C819D81D3
:100EA00060D441E06E818C819D8157D48E81FE019A
:100EB000E80FF11D67858C819D8146D589E090E022
:100EC000DF91CF910895AF92BF92CF92DF92EF92D0
:100ED000FF920F931F93CF93DF93EC019E819F832B
:100EE000EB85FC853197E730F10508F08EC0ED5EAB
:100EF000FF4F0994992329F0915003C0993008F4C9
:100F00009F5F9E8330C088859985891708F449C002
:100F100080E048C08885882311F0815043C08985CE
:100F200041C08E01015F1F4F888590E06DE070E049
:100F3000FAD64B964BE0B8018C0F9D1F30DD8E81A9
:100F40007E01E80EF11CF7016785CE0141DEF70155
:100F50008787888590E06DE070E0E5D64B96B80114
:100F60008C0F9D1F44DD88E090E051C08E01015F31
:100F70001F4F888590E06DE070E0D5D64B964BE032
:100F8000B8018C0F9D1F0BDD8E817E01E80EF11CD8
:100F9000F7016785CE0111DEDACF88854985841790
:100FA00030F48F5F88871E8287E090E030C06E014A
:100FB000FAE1CF0ED11C60E070E0C60107DA4D8582
:100FC00061E070E0C60102DA7E018BE1E80EF11CFF
:100FD00006E910E05E01EFE0AE0EB11C4BE0B5019A
:100FE000C701DDDC2BE030E0A801B501C60116DA4F
:100FF000FDE0EF0EF11C055F1F4F023C110571F77C
:1010000018861E828AE090E002C089E090E0DF91BD
:10101000CF911F910F91FF90EF90DF90CF90BF90F5
:10102000AF9008950F931F93CF93DF93EC018C81C2
:101030009D81D0D38C819D819AD342E060E08C81E8
:101040009D818BD38E01015F1F4F4E8550E04E5C1A
:101050005F4F2AE030E0B801CE014A96BCD9198E24
:10106000B8018C819D8110D68CE090E0DF91CF910A
:101070001F910F910895CF93DF93EC0143E067E058
:101080008C819D816AD36A8570E042E08C819D816C
:101090008BD58DE090E0DF91CF9108950F931F9352
:1010A000CF93DF93EC0140E060E08C819D8155D3CC
:1010B0008E01015F1F4F888590E06DE070E033D6B0
:1010C0004B964BE0B8018C0F9D1F69DCB8018C81F9
:1010D0009D8136D54AE050E060E270E0C80157D605
:1010E000198EB8018C819D812BD543E065E08C8100
:1010F0009D8133D36AE38C819D8126D443E060E0F7
:101100008C819D812AD3888590E06DE070E00BD6BC
:101110004B968C0F9D1F3FDC44E0BC018C819D8170
:1011200043D58BE090E0DF91CF911F910F9108950F
:10113000CF93DF93DC011B96ED91FC911C973197C7
:10114000EA30F10508F05FC0E65EFF4F099481E0E8
:1011500090E05BC01A968C911A97882311F0815009
:101160000AC083E608C01A968C911A97833610F449
:101170008F5F01C080E01A968C938BE090E045C0B1
:1011800018968C911897882311F081500FC01996EA
:101190008C9119970BC018968C91189719969C9161
:1011A0001997891710F48F5F01C080E018968C930F
:1011B00021C0EC01888590E06DE070E0B4D54B96DD
:1011C0008A0F9B1FE8DB2A85820F911D9C01888571
:1011D00090E06DE070E0A7D54B96B9018C0F9D1F94
:1011E00002DC1A8688859985891710F48F5F01C003
:1011F00080E088878CE090E008C08EE090E005C039
:1012000080E090E002C08DE090E0DF91CF91089502
:10121000CF93DF93EC0160E08C819D815CD260E034
:10122000888199814FD9811108C08FE493EC01978F
:10123000F1F700C00000A895F2CFA8950FB6F8947A
:10124000A89581B5886181BD11BC0FBE85B780644A
:1012500085BF85B78C7F85BF8AB780688ABF8BB70B
:1012600080688BBFF8949FE728E381E0915020408D
:101270008040E1F700C0000085B7877E806185BFB0
:1012800085B7806285BF85B7846885BF8B7F85BF42
:101290007894889585B78F7D85BFF8948BB78F77C5
:1012A0008BBF8AB780688ABF85B78F7B85BF7894EC
:1012B000A89598E288E10FB6F894A89581BD0FBE75
:1012C00091BD61E08C819D81DF91CF9104C2BF927D
:1012D000CF92DF92EF92FF920F931F93CF93DF9302
:1012E000EC0160E088819981EDD8B82E63E08881B7
:1012F0009981E8D8C82E64E088819981E3D8D82EF6
:1013000065E088819981DED8E82E66E08881998140
:10131000D9D8F82E60E08A819B81F8DA882341F0E1
:101320006FEF680F8A819B81FBDA01E010E002C059
:1013300000E010E060E08A819B81EDDA882339F0DB
:101340006FEF680F8A819B81EEDA02E010E0B11046
:1013500012C020919000CE01815B9F4F222331F07B
:1013600063E070E080D807E010E005C08BD88823E8
:1013700011F009E010E0C11006C080918F008823B1
:1013800011F003E010E0D11006C080918E00882398
:1013900011F004E010E0E11012C020918D00CE01A8
:1013A0008D5A9F4F222331F063E070E05CD805E056
:1013B00010E005C067D8882311F008E010E0F110B4
:1013C00012C020918C00CE018B5A9F4F222331F006
:1013D00063E070E048D806E010E005C053D88823E9
:1013E00011F00AE010E0B0929000C0928F00D0920D
:1013F0008E00E0928D00F0928C00C801DF91CF91B9
:101400001F910F91FF90EF90DF90CF90BF900895C4
:10141000AF92BF92CF92DF92EF92FF920F931F9302
:10142000CF93DF93EC0118861A867C018BE1E80EDE
:10143000F11C06E910E06E018FE0C80ED11C5E01C0
:101440008AE1A80EB11C2AE030E0A801B601C5016E
:10145000C2D7198EB601C701CADA60E070E0C701D1
:10146000C2DA055F1F4F8DE0E80EF11C023C11054A
:1014700051F7DF91CF911F910F91FF90EF90DF9087
:10148000CF90BF90AF900895EF92FF920F931F936C
:10149000CF93DF93EC011BDF9C878B879E01295A3A
:1014A0003F4F79018E010F5A1F4F892B69F060E081
:1014B0008C819D812BD16AE070E0C701D4D768E5AB
:1014C00072E0C801D0D712C0C901DCD7882321F04F
:1014D00061E08C819D811AD1C801D4D7882331F075
:1014E0008FE090E09093920080939100E0919100C2
:1014F000F0919200E031F10558F5EC5DFF4FCE011F
:10150000099496DB21C0B3DB1FC0DEDB1DC006DC07
:101510001BC03ADC19C04ADC17C06DDC15C0A5DC65
:1015200013C0D1DC11C07EDD0FC0A5DD0DC0B6DD5E
:101530000BC0FEDD09C06CDECE016ADF01C068DED3
:10154000CE0151DB8AE090E090939200809391006D
:10155000DF91CF911F910F91FF90EF900895CF935E
:10156000DF93EC01815B9F4F82D7CE018F5A9F4F53
:101570007ED7CE018D5A9F4F7AD7CE018B5A9F4F7F
:1015800076D7CE01895A9F4FDF91CF9170C7A8952A
:1015900083E990E079DF82E091E074D78823B9F3A2
:1015A00083E990E0DCDF68EE73E082E091E05BD7F6
:1015B000EECFF8948FE383BB81E085BB83E083BFEC
:1015C00088B78B6188BF80E189BF7894089589E0EE
:1015D00086BF80E888BD81E088BD98E288E10FB6CB
:1015E000F894A89581BD0FBE91BDE3DF84E091E042
:1015F00025CA1F920F920FB60F9211242F933F937B
:101600004F935F936F937F938F939F93AF93BF930A
:10161000EF93FF9380913901811106C085E091E03D
:10162000DCD88AE080933901809139018150809320
:1016300039018CEE90E039D982E091E018D7FF9122
:10164000EF91BF91AF919F918F917F916F915F913A
:101650004F913F912F910F900FBE0F901F901895B3
:101660001F920F920FB60F9211240F900FBE0F9082
:101670001F901895FC0171836083428313828FE968
:101680008483158281E086831782108611861286F4
:10169000138615861486CF010E9648C9CF93DF9323
:1016A000EC016C834D836A8188819981FDD960E06A
:1016B00088819981CAD961E888819981C6D96C816C
:1016C00088819981C2D988819981DF91CF91B7C9E9
:1016D000FC01638308951F93CF93DF93EC01162FD2
:1016E0006A8188819981E0D960E088819981ADD94A
:1016F000111102C06EEA01C06FEA88819981A5D9F3
:1017000088819981DF91CF911F9199C91F93CF93C0
:10171000DF93EC01162F6A8188819981C5D960E039
:101720008881998192D961E8888199818ED9112324
:1017300011F06D8101C06C818881998186D9888181
:101740009981DF91CF911F917AC9623010F46F5F58
:1017500001C064E0FC0166830895FC016783408753
:101760000895FC0181E08387618742870895FC0129
:10177000138608951F93CF93DF93EC01162F6A8190
:101780008881998191D960E0888199815ED9612FA2
:10179000888199815AD988819981DF91CF911F9150
:1017A0004EC90F931F93CF938C01C62F642F6F7078
:1017B000606BE0DF6C2F6F70C801DCDF6C2F62950F
:1017C0006F706061C801D6DF60E4C801CF911F91DE
:1017D0000F91D0CF0F931F93CF93DF93EC0140E095
:1017E0006B81DFDF10E06A81888199815DD960E4D7
:1017F000888199812AD900E060E08881998125D982
:101800000F5F0038C9F78881998119D9412F6B8101
:10181000CE01C7DF1F5F193031F740E06B81CE0189
:10182000C0DF1F821886DF91CF911F910F9108951D
:10183000CF93DF93EC017D876C876A8188819981E2
:1018400033D960E08881998100D96EEA88819981D5
:10185000FCD866EA88819981F8D865ED88819981FC
:10186000F4D860E888819981F0D868EA8881998104
:10187000ECD86FE388819981E8D863ED88819981FC
:10188000E4D860E088819981E0D860E4888199811A
:10189000DCD86DE888819981D8D88C859D85892B85
:1018A00011F064E101C060E188819981CED860E2E5
:1018B00088819981CAD860E088819981C6D861EA17
:1018C00088819981C2D868EC88819981BED86AEDF7
:1018D00088819981BAD862E188819981B6D861E816
:1018E00088819981B2D86C8188819981AED869ED5F
:1018F00088819981AAD88C859D85892B11F061EF0B
:1019000001C062E288819981A0D86BED88819981BC
:101910009CD860E48881998198D864EA888199810B
:1019200094D866EA8881998190D86EE288819981FD
:101930008CD86FEA8881998188D8888199817FD8ED
:10194000CE01DF91CF9146CF2F923F924F925F927F
:101950006F927F928F929F92AF92BF92CF92DF92BF
:10196000EF92FF920F931F93CF93DF9300D000D09D
:1019700000D0CDB7DEB79E838D83062F10E080E0C8
:10198000412C512C32014A942D813E81225F3F4FE0
:101990003C832B83AD81BE811B969C911B97992321
:1019A00081F017962C91179719969C9119972913E6
:1019B00008C018962C9118971A969C91291301C06B
:1019C0008068AD81BE811696EC912E2F30E03A836F
:1019D000298340E050E020E030E0C12CD12C76019A
:1019E000282E312C81E090E0022E02C0880F991F32
:1019F0000A94E2F782219321022E02C096958795E0
:101A00000A94E2F7BA01A0E0B0E0F62FF41BFE174B
:101A100088F44C015D01062E04C0880C991CAA1C98
:101A2000BB1C0A94D2F7C828D928EA28FB286F5F84
:101A30007F4FEBCF2F5F3F4F89819A81480F591F0E
:101A40002830310579F6A12CAD81BE8116969C9186
:101A50001697A91608F04EC018966C911897892F02
:101A600059D1482F4A0D17968C91179766E052D19D
:101A7000810F692F4FD113966C911397680FCD0189
:101A800090DEED81FE816281808191810DD860E4DC
:101A9000AD81BE818D919C91D8D78A2D90E09C011B
:101AA00083E0220F331F8A95E1F7B301A201022ED2
:101AB00004C0440F551F661F771F0A94D2F74C21AC
:101AC0005D216E217F2104C07695679557954795D6
:101AD0002A95D2F7B42E912CED81FE81268180814A
:101AE0009181921620F46B2DB0D79394F5CFA7D7A0
:101AF000A394AACFFF24F394F10EF6E0FF1639F079
:101B0000412F602F8B819C8112D71F2D43CF2696AA
:101B10000FB6F894DEBF0FBECDBFDF91CF911F91FE
:101B20000F91FF90EF90DF90CF90BF90AF909F907C
:101B30008F907F906F905F904F903F902F9008957F
:101B4000CF92DF92EF92FF921F93CF93DF93EC013E
:101B50007B0110E080E8C82ED12CF701E10FF11DC8
:101B600080818823C9F08E8190E066E070E0DBD050
:101B7000BC01C601E9D08F8190E08617970720F05D
:101B80001F8288858F5F88876081CE01DDDE1F5FC1
:101B90008F818F5F8F83E1CFDF91CF911F91FF9076
:101BA000EF90DF90CF9008958F929F92AF92BF9267
:101BB000CF92DF92EF92FF920F931F93CF93DF9319
:101BC000CDB7DEB760970FB6F894DEBF0FBECDBFBE
:101BD0005C016B018AE0E0E8F0E0DE011196019023
:101BE0000D928A95E1F7453008F045E0FE01319607
:101BF0008E01055F1F4F30E02FEF78018AE0882EBD
:101C0000912C61917191C6019FD0CB01B4019CD000
:101C1000882319F02F3F19F435C02F3F11F0805D54
:101C200001C080E2D8018D938D013F5F353049F7C7
:101C3000C6016AE070E088D0805D8F87188A85E0F1
:101C400090E0821B9109642F70E06817790714F007
:101C5000232F241BB701620F711DC50171DF609630
:101C60000FB6F894DEBF0FBECDBFDF91CF911F91AD
:101C70000F91FF90EF90DF90CF90BF90AF909F902B
:101C80008F900895232FCBCFCF93DF93EC0158DFB4
:101C90001F8288858F5F8887DF91CF9108951F937A
:101CA000CF93DF93EC01162F6A8188819981FCD64E
:101CB00060E488819981C9D6612F88819981C5D6D0
:101CC00088819981DF91CF911F91B9C680DC5FDC5B
:101CD0000F9385E091E0DED384E091E0AED682E020
:101CE00091E0BDD34CE364E071E083EF90E0C2DCAF
:101CF00002E021E041E065E071E08CEE90E0CAD5C1
:101D000023EF30E04CEE50E065E071E083E990E0D5
:101D10000F91EEC6002480FD060E660F11F0869529
:101D2000D1F7802D08950024552704C0080E591FAF
:101D3000880F991F009729F076956795B8F371057C
:101D4000B9F7802D952F0895AA1BBB1B51E107C041
:101D5000AA1FBB1FA617B70710F0A61BB70B881F3B
:101D6000991F5A95A9F780959095BC01CD010895CA
:101D7000EE0FFF1F0590F491E02D0994FB01DC01AB
:101D800002C001900D9241505040D8F70895DC01F7
:101D900001C06D9341505040E0F70895FB01DC0114
:101DA00001900D920020E1F70895E199FECF9FBBCD
:101DB0008EBBE09A99278DB30895262FE199FECF27
:101DC0001CBA9FBB8EBB2DBB0FB6F894E29AE19A6A
:0A1DD0000FBE01960895F894FFCFAE
:101DDA0000020005000400000006000100030007DD
:101DEA0001000101010201030104010501060107C5
:0A1DFA001027E80364000A0001004E
:00000001FF
